{
  "_format": "hh-sol-artifact-1",
  "contractName": "PokemonCard",
  "sourceName": "contracts/PokemonCard.sol",
  "abi": [
    {
      "inputs": [
        {
          "internalType": "address",
          "name": "initialOwner",
          "type": "address"
        }
      ],
      "stateMutability": "nonpayable",
      "type": "constructor"
    },
    {
      "inputs": [],
      "name": "ERC721EnumerableForbiddenBatchMint",
      "type": "error"
    },
    {
      "inputs": [
        {
          "internalType": "address",
          "name": "sender",
          "type": "address"
        },
        {
          "internalType": "uint256",
          "name": "tokenId",
          "type": "uint256"
        },
        {
          "internalType": "address",
          "name": "owner",
          "type": "address"
        }
      ],
      "name": "ERC721IncorrectOwner",
      "type": "error"
    },
    {
      "inputs": [
        {
          "internalType": "address",
          "name": "operator",
          "type": "address"
        },
        {
          "internalType": "uint256",
          "name": "tokenId",
          "type": "uint256"
        }
      ],
      "name": "ERC721InsufficientApproval",
      "type": "error"
    },
    {
      "inputs": [
        {
          "internalType": "address",
          "name": "approver",
          "type": "address"
        }
      ],
      "name": "ERC721InvalidApprover",
      "type": "error"
    },
    {
      "inputs": [
        {
          "internalType": "address",
          "name": "operator",
          "type": "address"
        }
      ],
      "name": "ERC721InvalidOperator",
      "type": "error"
    },
    {
      "inputs": [
        {
          "internalType": "address",
          "name": "owner",
          "type": "address"
        }
      ],
      "name": "ERC721InvalidOwner",
      "type": "error"
    },
    {
      "inputs": [
        {
          "internalType": "address",
          "name": "receiver",
          "type": "address"
        }
      ],
      "name": "ERC721InvalidReceiver",
      "type": "error"
    },
    {
      "inputs": [
        {
          "internalType": "address",
          "name": "sender",
          "type": "address"
        }
      ],
      "name": "ERC721InvalidSender",
      "type": "error"
    },
    {
      "inputs": [
        {
          "internalType": "uint256",
          "name": "tokenId",
          "type": "uint256"
        }
      ],
      "name": "ERC721NonexistentToken",
      "type": "error"
    },
    {
      "inputs": [
        {
          "internalType": "address",
          "name": "owner",
          "type": "address"
        },
        {
          "internalType": "uint256",
          "name": "index",
          "type": "uint256"
        }
      ],
      "name": "ERC721OutOfBoundsIndex",
      "type": "error"
    },
    {
      "inputs": [],
      "name": "EnforcedPause",
      "type": "error"
    },
    {
      "inputs": [],
      "name": "ExpectedPause",
      "type": "error"
    },
    {
      "inputs": [
        {
          "internalType": "address",
          "name": "owner",
          "type": "address"
        }
      ],
      "name": "OwnableInvalidOwner",
      "type": "error"
    },
    {
      "inputs": [
        {
          "internalType": "address",
          "name": "account",
          "type": "address"
        }
      ],
      "name": "OwnableUnauthorizedAccount",
      "type": "error"
    },
    {
      "anonymous": false,
      "inputs": [
        {
          "indexed": true,
          "internalType": "address",
          "name": "owner",
          "type": "address"
        },
        {
          "indexed": true,
          "internalType": "address",
          "name": "approved",
          "type": "address"
        },
        {
          "indexed": true,
          "internalType": "uint256",
          "name": "tokenId",
          "type": "uint256"
        }
      ],
      "name": "Approval",
      "type": "event"
    },
    {
      "anonymous": false,
      "inputs": [
        {
          "indexed": true,
          "internalType": "address",
          "name": "owner",
          "type": "address"
        },
        {
          "indexed": true,
          "internalType": "address",
          "name": "operator",
          "type": "address"
        },
        {
          "indexed": false,
          "internalType": "bool",
          "name": "approved",
          "type": "bool"
        }
      ],
      "name": "ApprovalForAll",
      "type": "event"
    },
    {
      "anonymous": false,
      "inputs": [
        {
          "indexed": false,
          "internalType": "uint256",
          "name": "_fromTokenId",
          "type": "uint256"
        },
        {
          "indexed": false,
          "internalType": "uint256",
          "name": "_toTokenId",
          "type": "uint256"
        }
      ],
      "name": "BatchMetadataUpdate",
      "type": "event"
    },
    {
      "anonymous": false,
      "inputs": [
        {
          "indexed": false,
          "internalType": "uint256",
          "name": "_tokenId",
          "type": "uint256"
        }
      ],
      "name": "MetadataUpdate",
      "type": "event"
    },
    {
      "anonymous": false,
      "inputs": [
        {
          "indexed": true,
          "internalType": "address",
          "name": "previousOwner",
          "type": "address"
        },
        {
          "indexed": true,
          "internalType": "address",
          "name": "newOwner",
          "type": "address"
        }
      ],
      "name": "OwnershipTransferred",
      "type": "event"
    },
    {
      "anonymous": false,
      "inputs": [
        {
          "indexed": false,
          "internalType": "address",
          "name": "account",
          "type": "address"
        }
      ],
      "name": "Paused",
      "type": "event"
    },
    {
      "anonymous": false,
      "inputs": [
        {
          "indexed": true,
          "internalType": "address",
          "name": "from",
          "type": "address"
        },
        {
          "indexed": true,
          "internalType": "address",
          "name": "to",
          "type": "address"
        },
        {
          "indexed": true,
          "internalType": "uint256",
          "name": "tokenId",
          "type": "uint256"
        }
      ],
      "name": "Transfer",
      "type": "event"
    },
    {
      "anonymous": false,
      "inputs": [
        {
          "indexed": false,
          "internalType": "address",
          "name": "account",
          "type": "address"
        }
      ],
      "name": "Unpaused",
      "type": "event"
    },
    {
      "inputs": [
        {
          "internalType": "address",
          "name": "to",
          "type": "address"
        },
        {
          "internalType": "uint256",
          "name": "tokenId",
          "type": "uint256"
        }
      ],
      "name": "approve",
      "outputs": [],
      "stateMutability": "nonpayable",
      "type": "function"
    },
    {
      "inputs": [
        {
          "internalType": "address",
          "name": "owner",
          "type": "address"
        }
      ],
      "name": "balanceOf",
      "outputs": [
        {
          "internalType": "uint256",
          "name": "",
          "type": "uint256"
        }
      ],
      "stateMutability": "view",
      "type": "function"
    },
    {
      "inputs": [
        {
          "internalType": "uint256",
          "name": "tokenId",
          "type": "uint256"
        }
      ],
      "name": "burn",
      "outputs": [],
      "stateMutability": "nonpayable",
      "type": "function"
    },
    {
      "inputs": [
        {
          "internalType": "uint256",
          "name": "tokenId",
          "type": "uint256"
        }
      ],
      "name": "getApproved",
      "outputs": [
        {
          "internalType": "address",
          "name": "",
          "type": "address"
        }
      ],
      "stateMutability": "view",
      "type": "function"
    },
    {
      "inputs": [
        {
          "internalType": "address",
          "name": "owner",
          "type": "address"
        },
        {
          "internalType": "address",
          "name": "operator",
          "type": "address"
        }
      ],
      "name": "isApprovedForAll",
      "outputs": [
        {
          "internalType": "bool",
          "name": "",
          "type": "bool"
        }
      ],
      "stateMutability": "view",
      "type": "function"
    },
    {
      "inputs": [],
      "name": "name",
      "outputs": [
        {
          "internalType": "string",
          "name": "",
          "type": "string"
        }
      ],
      "stateMutability": "view",
      "type": "function"
    },
    {
      "inputs": [],
      "name": "owner",
      "outputs": [
        {
          "internalType": "address",
          "name": "",
          "type": "address"
        }
      ],
      "stateMutability": "view",
      "type": "function"
    },
    {
      "inputs": [
        {
          "internalType": "uint256",
          "name": "tokenId",
          "type": "uint256"
        }
      ],
      "name": "ownerOf",
      "outputs": [
        {
          "internalType": "address",
          "name": "",
          "type": "address"
        }
      ],
      "stateMutability": "view",
      "type": "function"
    },
    {
      "inputs": [],
      "name": "pause",
      "outputs": [],
      "stateMutability": "nonpayable",
      "type": "function"
    },
    {
      "inputs": [],
      "name": "paused",
      "outputs": [
        {
          "internalType": "bool",
          "name": "",
          "type": "bool"
        }
      ],
      "stateMutability": "view",
      "type": "function"
    },
    {
      "inputs": [],
      "name": "renounceOwnership",
      "outputs": [],
      "stateMutability": "nonpayable",
      "type": "function"
    },
    {
      "inputs": [
        {
          "internalType": "address",
          "name": "to",
          "type": "address"
        },
        {
          "internalType": "string",
          "name": "uri",
          "type": "string"
        }
      ],
      "name": "safeMint",
      "outputs": [
        {
          "internalType": "uint256",
          "name": "",
          "type": "uint256"
        }
      ],
      "stateMutability": "nonpayable",
      "type": "function"
    },
    {
      "inputs": [
        {
          "internalType": "address",
          "name": "from",
          "type": "address"
        },
        {
          "internalType": "address",
          "name": "to",
          "type": "address"
        },
        {
          "internalType": "uint256",
          "name": "tokenId",
          "type": "uint256"
        }
      ],
      "name": "safeTransferFrom",
      "outputs": [],
      "stateMutability": "nonpayable",
      "type": "function"
    },
    {
      "inputs": [
        {
          "internalType": "address",
          "name": "from",
          "type": "address"
        },
        {
          "internalType": "address",
          "name": "to",
          "type": "address"
        },
        {
          "internalType": "uint256",
          "name": "tokenId",
          "type": "uint256"
        },
        {
          "internalType": "bytes",
          "name": "data",
          "type": "bytes"
        }
      ],
      "name": "safeTransferFrom",
      "outputs": [],
      "stateMutability": "nonpayable",
      "type": "function"
    },
    {
      "inputs": [
        {
          "internalType": "address",
          "name": "operator",
          "type": "address"
        },
        {
          "internalType": "bool",
          "name": "approved",
          "type": "bool"
        }
      ],
      "name": "setApprovalForAll",
      "outputs": [],
      "stateMutability": "nonpayable",
      "type": "function"
    },
    {
      "inputs": [
        {
          "internalType": "bytes4",
          "name": "interfaceId",
          "type": "bytes4"
        }
      ],
      "name": "supportsInterface",
      "outputs": [
        {
          "internalType": "bool",
          "name": "",
          "type": "bool"
        }
      ],
      "stateMutability": "view",
      "type": "function"
    },
    {
      "inputs": [],
      "name": "symbol",
      "outputs": [
        {
          "internalType": "string",
          "name": "",
          "type": "string"
        }
      ],
      "stateMutability": "view",
      "type": "function"
    },
    {
      "inputs": [
        {
          "internalType": "uint256",
          "name": "index",
          "type": "uint256"
        }
      ],
      "name": "tokenByIndex",
      "outputs": [
        {
          "internalType": "uint256",
          "name": "",
          "type": "uint256"
        }
      ],
      "stateMutability": "view",
      "type": "function"
    },
    {
      "inputs": [
        {
          "internalType": "address",
          "name": "owner",
          "type": "address"
        },
        {
          "internalType": "uint256",
          "name": "index",
          "type": "uint256"
        }
      ],
      "name": "tokenOfOwnerByIndex",
      "outputs": [
        {
          "internalType": "uint256",
          "name": "",
          "type": "uint256"
        }
      ],
      "stateMutability": "view",
      "type": "function"
    },
    {
      "inputs": [
        {
          "internalType": "uint256",
          "name": "tokenId",
          "type": "uint256"
        }
      ],
      "name": "tokenURI",
      "outputs": [
        {
          "internalType": "string",
          "name": "",
          "type": "string"
        }
      ],
      "stateMutability": "view",
      "type": "function"
    },
    {
      "inputs": [],
      "name": "totalSupply",
      "outputs": [
        {
          "internalType": "uint256",
          "name": "",
          "type": "uint256"
        }
      ],
      "stateMutability": "view",
      "type": "function"
    },
    {
      "inputs": [
        {
          "internalType": "address",
          "name": "from",
          "type": "address"
        },
        {
          "internalType": "address",
          "name": "to",
          "type": "address"
        },
        {
          "internalType": "uint256",
          "name": "tokenId",
          "type": "uint256"
        }
      ],
      "name": "transferFrom",
      "outputs": [],
      "stateMutability": "nonpayable",
      "type": "function"
    },
    {
      "inputs": [
        {
          "internalType": "address",
          "name": "newOwner",
          "type": "address"
        }
      ],
      "name": "transferOwnership",
      "outputs": [],
      "stateMutability": "nonpayable",
      "type": "function"
    },
    {
      "inputs": [],
      "name": "unpause",
      "outputs": [],
      "stateMutability": "nonpayable",
      "type": "function"
    }
  ],
  "bytecode": "0x608060405234801561001057600080fd5b50604051611c59380380611c5983398101604081905261002f91610128565b806040518060400160405280600b81526020016a141bdad95b5bdb90d85c9960aa1b815250604051806040016040528060048152602001632825a6a760e11b815250816000908161008091906101f7565b50600161008d82826101f7565b5050506001600160a01b0381166100be57604051631e4fbdf760e01b81526000600482015260240160405180910390fd5b6100c7816100ce565b50506102b5565b600b80546001600160a01b03838116610100818102610100600160a81b031985161790945560405193909204169182907f8be0079c531659141344cd1fd0a4f28419497f9722a3daafe3b4186f6b6457e090600090a35050565b60006020828403121561013a57600080fd5b81516001600160a01b038116811461015157600080fd5b9392505050565b634e487b7160e01b600052604160045260246000fd5b600181811c9082168061018257607f821691505b6020821081036101a257634e487b7160e01b600052602260045260246000fd5b50919050565b601f8211156101f257806000526020600020601f840160051c810160208510156101cf5750805b601f840160051c820191505b818110156101ef57600081556001016101db565b50505b505050565b81516001600160401b0381111561021057610210610158565b6102248161021e845461016e565b846101a8565b6020601f82116001811461025857600083156102405750848201515b600019600385901b1c1916600184901b1784556101ef565b600084815260208120601f198516915b828110156102885787850151825560209485019460019092019101610268565b50848210156102a65786840151600019600387901b60f8161c191681555b50505050600190811b01905550565b611995806102c46000396000f3fe608060405234801561001057600080fd5b50600436106101585760003560e01c80636352211e116100c3578063a22cb4651161007c578063a22cb465146102b2578063b88d4fde146102c5578063c87b56dd146102d8578063d204c45e146102eb578063e985e9c5146102fe578063f2fde38b1461031157600080fd5b80636352211e1461025e57806370a0823114610271578063715018a6146102845780638456cb591461028c5780638da5cb5b1461029457806395d89b41146102aa57600080fd5b80632f745c59116101155780632f745c59146101ff5780633f4ba83a1461021257806342842e0e1461021a57806342966c681461022d5780634f6ccce7146102405780635c975abb1461025357600080fd5b806301ffc9a71461015d57806306fdde0314610185578063081812fc1461019a578063095ea7b3146101c557806318160ddd146101da57806323b872dd146101ec575b600080fd5b61017061016b366004611414565b610324565b60405190151581526020015b60405180910390f35b61018d610335565b60405161017c9190611481565b6101ad6101a8366004611494565b6103c7565b6040516001600160a01b03909116815260200161017c565b6101d86101d33660046114c9565b6103f0565b005b6008545b60405190815260200161017c565b6101d86101fa3660046114f3565b6103ff565b6101de61020d3660046114c9565b61048f565b6101d86104f4565b6101d86102283660046114f3565b610506565b6101d861023b366004611494565b610526565b6101de61024e366004611494565b610532565b600b5460ff16610170565b6101ad61026c366004611494565b61058b565b6101de61027f366004611530565b610596565b6101d86105de565b6101d86105f0565b600b5461010090046001600160a01b03166101ad565b61018d610600565b6101d86102c036600461154b565b61060f565b6101d86102d3366004611617565b61061a565b61018d6102e6366004611494565b610632565b6101de6102f9366004611693565b61063d565b61017061030c3660046116f5565b610679565b6101d861031f366004611530565b6106a7565b600061032f826106e5565b92915050565b60606000805461034490611728565b80601f016020809104026020016040519081016040528092919081815260200182805461037090611728565b80156103bd5780601f10610392576101008083540402835291602001916103bd565b820191906000526020600020905b8154815290600101906020018083116103a057829003601f168201915b5050505050905090565b60006103d28261070a565b506000828152600460205260409020546001600160a01b031661032f565b6103fb828233610743565b5050565b6001600160a01b03821661042e57604051633250574960e11b8152600060048201526024015b60405180910390fd5b600061043b838333610750565b9050836001600160a01b0316816001600160a01b031614610489576040516364283d7b60e01b81526001600160a01b0380861660048301526024820184905282166044820152606401610425565b50505050565b600061049a83610596565b82106104cb5760405163295f44f760e21b81526001600160a01b038416600482015260248101839052604401610425565b506001600160a01b03919091166000908152600660209081526040808320938352929052205490565b6104fc610765565b610504610798565b565b6105218383836040518060200160405280600081525061061a565b505050565b6103fb60008233610750565b600061053d60085490565b82106105665760405163295f44f760e21b81526000600482015260248101839052604401610425565b6008828154811061057957610579611762565b90600052602060002001549050919050565b600061032f8261070a565b60006001600160a01b0382166105c2576040516322718ad960e21b815260006004820152602401610425565b506001600160a01b031660009081526003602052604090205490565b6105e6610765565b61050460006107ea565b6105f8610765565b610504610844565b60606001805461034490611728565b6103fb338383610881565b6106258484846103ff565b6104893385858585610920565b606061032f82610a4b565b6000610647610765565b600c8054600091826106588361178e565b9190505590506106688482610b54565b6106728184610b6e565b9392505050565b6001600160a01b03918216600090815260056020908152604080832093909416825291909152205460ff1690565b6106af610765565b6001600160a01b0381166106d957604051631e4fbdf760e01b815260006004820152602401610425565b6106e2816107ea565b50565b60006001600160e01b03198216632483248360e11b148061032f575061032f82610bbe565b6000818152600260205260408120546001600160a01b03168061032f57604051637e27328960e01b815260048101849052602401610425565b6105218383836001610be3565b600061075d848484610ce9565b949350505050565b600b546001600160a01b036101009091041633146105045760405163118cdaa760e01b8152336004820152602401610425565b6107a0610cfe565b600b805460ff191690557f5db9ee0a495bf2e6ff9c91a7834c1ba4fdd244a5e8aa4e537bd38aeae4b073aa335b6040516001600160a01b03909116815260200160405180910390a1565b600b80546001600160a01b03838116610100818102610100600160a81b031985161790945560405193909204169182907f8be0079c531659141344cd1fd0a4f28419497f9722a3daafe3b4186f6b6457e090600090a35050565b61084c610d21565b600b805460ff191660011790557f62e78cea01bee320cd4e420270b5ea74000d11b0c9f74754ebdbfc544b05a2586107cd3390565b6001600160a01b0382166108b357604051630b61174360e31b81526001600160a01b0383166004820152602401610425565b6001600160a01b03838116600081815260056020908152604080832094871680845294825291829020805460ff191686151590811790915591519182527f17307eab39ab6107e8899845ad3d59bd9653f200f220920489ca2b5937696c31910160405180910390a3505050565b6001600160a01b0383163b15610a4457604051630a85bd0160e11b81526001600160a01b0384169063150b7a02906109629088908890879087906004016117a7565b6020604051808303816000875af192505050801561099d575060408051601f3d908101601f1916820190925261099a918101906117e4565b60015b610a06573d8080156109cb576040519150601f19603f3d011682016040523d82523d6000602084013e6109d0565b606091505b5080516000036109fe57604051633250574960e11b81526001600160a01b0385166004820152602401610425565b805181602001fd5b6001600160e01b03198116630a85bd0160e11b14610a4257604051633250574960e11b81526001600160a01b0385166004820152602401610425565b505b5050505050565b6060610a568261070a565b506000828152600a602052604081208054610a7090611728565b80601f0160208091040260200160405190810160405280929190818152602001828054610a9c90611728565b8015610ae95780601f10610abe57610100808354040283529160200191610ae9565b820191906000526020600020905b815481529060010190602001808311610acc57829003601f168201915b505050505090506000610b0760408051602081019091526000815290565b90508051600003610b19575092915050565b815115610b4b578082604051602001610b33929190611801565b60405160208183030381529060405292505050919050565b61075d84610d45565b6103fb828260405180602001604052806000815250610db9565b6000828152600a60205260409020610b868282611877565b506040518281527ff8e1a15aba9398e019f0b49df1a4fde98ee17ae345cb5f6b5e2c27f5033e8ce79060200160405180910390a15050565b60006001600160e01b0319821663780e9d6360e01b148061032f575061032f82610dd1565b8080610bf757506001600160a01b03821615155b15610cb9576000610c078461070a565b90506001600160a01b03831615801590610c335750826001600160a01b0316816001600160a01b031614155b8015610c465750610c448184610679565b155b15610c6f5760405163a9fbf51f60e01b81526001600160a01b0384166004820152602401610425565b8115610cb75783856001600160a01b0316826001600160a01b03167f8c5be1e5ebec7d5bd14f71427d1e84f3dd0314c0f7b2291e5b200ac8c7c3b92560405160405180910390a45b505b5050600090815260046020526040902080546001600160a01b0319166001600160a01b0392909216919091179055565b6000610cf3610d21565b61075d848484610e21565b600b5460ff1661050457604051638dfc202b60e01b815260040160405180910390fd5b600b5460ff16156105045760405163d93c066560e01b815260040160405180910390fd5b6060610d508261070a565b506000610d6860408051602081019091526000815290565b90506000815111610d885760405180602001604052806000815250610672565b80610d9284610eee565b604051602001610da3929190611801565b6040516020818303038152906040529392505050565b610dc38383610f81565b610521336000858585610920565b60006001600160e01b031982166380ac58cd60e01b1480610e0257506001600160e01b03198216635b5e139f60e01b145b8061032f57506301ffc9a760e01b6001600160e01b031983161461032f565b600080610e2f858585610fe6565b90506001600160a01b038116610e8c57610e8784600880546000838152600960205260408120829055600182018355919091527ff3f7a9fe364faab93b216da50a3214154f22a0a2b415b23a84c8169e8b636ee30155565b610eaf565b846001600160a01b0316816001600160a01b031614610eaf57610eaf81856110df565b6001600160a01b038516610ecb57610ec684611160565b61075d565b846001600160a01b0316816001600160a01b03161461075d5761075d858561120f565b60606000610efb8361125f565b600101905060008167ffffffffffffffff811115610f1b57610f1b611587565b6040519080825280601f01601f191660200182016040528015610f45576020820181803683370190505b5090508181016020015b600019016f181899199a1a9b1b9c1cb0b131b232b360811b600a86061a8153600a8504945084610f4f57509392505050565b6001600160a01b038216610fab57604051633250574960e11b815260006004820152602401610425565b6000610fb983836000610750565b90506001600160a01b03811615610521576040516339e3563760e11b815260006004820152602401610425565b6000828152600260205260408120546001600160a01b039081169083161561101357611013818486611337565b6001600160a01b0381161561105157611030600085600080610be3565b6001600160a01b038116600090815260036020526040902080546000190190555b6001600160a01b03851615611080576001600160a01b0385166000908152600360205260409020805460010190555b60008481526002602052604080822080546001600160a01b0319166001600160a01b0389811691821790925591518793918516917fddf252ad1be2c89b69c2b068fc378daa952ba7f163c4a11628f55a4df523b3ef91a4949350505050565b60006110ea83610596565b6000838152600760209081526040808320546001600160a01b038816845260069092529091209192509081831461114157600083815260208281526040808320548584528184208190558352600790915290208290555b6000938452600760209081526040808620869055938552525081205550565b60085460009061117290600190611936565b6000838152600960205260408120546008805493945090928490811061119a5761119a611762565b9060005260206000200154905080600883815481106111bb576111bb611762565b60009182526020808320909101929092558281526009909152604080822084905585825281205560088054806111f3576111f3611949565b6001900381819060005260206000200160009055905550505050565b6000600161121c84610596565b6112269190611936565b6001600160a01b039093166000908152600660209081526040808320868452825280832085905593825260079052919091209190915550565b60008072184f03e93ff9f4daa797ed6e38ed64bf6a1f0160401b831061129e5772184f03e93ff9f4daa797ed6e38ed64bf6a1f0160401b830492506040015b6d04ee2d6d415b85acef810000000083106112ca576d04ee2d6d415b85acef8100000000830492506020015b662386f26fc1000083106112e857662386f26fc10000830492506010015b6305f5e1008310611300576305f5e100830492506008015b612710831061131457612710830492506004015b60648310611326576064830492506002015b600a831061032f5760010192915050565b61134283838361139b565b610521576001600160a01b03831661137057604051637e27328960e01b815260048101829052602401610425565b60405163177e802f60e01b81526001600160a01b038316600482015260248101829052604401610425565b60006001600160a01b0383161580159061075d5750826001600160a01b0316846001600160a01b031614806113d557506113d58484610679565b8061075d5750506000908152600460205260409020546001600160a01b03908116911614919050565b6001600160e01b0319811681146106e257600080fd5b60006020828403121561142657600080fd5b8135610672816113fe565b60005b8381101561144c578181015183820152602001611434565b50506000910152565b6000815180845261146d816020860160208601611431565b601f01601f19169290920160200192915050565b6020815260006106726020830184611455565b6000602082840312156114a657600080fd5b5035919050565b80356001600160a01b03811681146114c457600080fd5b919050565b600080604083850312156114dc57600080fd5b6114e5836114ad565b946020939093013593505050565b60008060006060848603121561150857600080fd5b611511846114ad565b925061151f602085016114ad565b929592945050506040919091013590565b60006020828403121561154257600080fd5b610672826114ad565b6000806040838503121561155e57600080fd5b611567836114ad565b91506020830135801515811461157c57600080fd5b809150509250929050565b634e487b7160e01b600052604160045260246000fd5b60008067ffffffffffffffff8411156115b8576115b8611587565b50604051601f19601f85018116603f0116810181811067ffffffffffffffff821117156115e7576115e7611587565b6040528381529050808284018510156115ff57600080fd5b83836020830137600060208583010152509392505050565b6000806000806080858703121561162d57600080fd5b611636856114ad565b9350611644602086016114ad565b925060408501359150606085013567ffffffffffffffff81111561166757600080fd5b8501601f8101871361167857600080fd5b6116878782356020840161159d565b91505092959194509250565b600080604083850312156116a657600080fd5b6116af836114ad565b9150602083013567ffffffffffffffff8111156116cb57600080fd5b8301601f810185136116dc57600080fd5b6116eb8582356020840161159d565b9150509250929050565b6000806040838503121561170857600080fd5b611711836114ad565b915061171f602084016114ad565b90509250929050565b600181811c9082168061173c57607f821691505b60208210810361175c57634e487b7160e01b600052602260045260246000fd5b50919050565b634e487b7160e01b600052603260045260246000fd5b634e487b7160e01b600052601160045260246000fd5b6000600182016117a0576117a0611778565b5060010190565b6001600160a01b03858116825284166020820152604081018390526080606082018190526000906117da90830184611455565b9695505050505050565b6000602082840312156117f657600080fd5b8151610672816113fe565b60008351611813818460208801611431565b835190830190611827818360208801611431565b01949350505050565b601f82111561052157806000526020600020601f840160051c810160208510156118575750805b601f840160051c820191505b81811015610a445760008155600101611863565b815167ffffffffffffffff81111561189157611891611587565b6118a58161189f8454611728565b84611830565b6020601f8211600181146118d957600083156118c15750848201515b600019600385901b1c1916600184901b178455610a44565b600084815260208120601f198516915b8281101561190957878501518255602094850194600190920191016118e9565b50848210156119275786840151600019600387901b60f8161c191681555b50505050600190811b01905550565b8181038181111561032f5761032f611778565b634e487b7160e01b600052603160045260246000fdfea264697066735822122065b285fd14cabee3f629062f1db7bdb6816b820174a4f363357e5e63240c2f7364736f6c634300081c0033",
  "linkReferences": {},
  "deployedLinkReferences": {}
}